{
	"data": {
		"bytecode": {
			"linkReferences": {},
			"object": "6080604052607b5f557ffffffffffffffffffffffffffffffffffffffffffffffffffffffffffffffe38600155600160025f6101000a81548160ff0219169083151502179055506040518060400160405280600a81526020017f426c6f636b636861696e00000000000000000000000000000000000000000000815250600390816200008c91906200036e565b503360045f6101000a81548173ffffffffffffffffffffffffffffffffffffffff021916908373ffffffffffffffffffffffffffffffffffffffff160217905550604051602001620000de90620004aa565b6040516020818303038152906040528051906020012060055534801562000103575f80fd5b50620004c0565b5f81519050919050565b7f4e487b71000000000000000000000000000000000000000000000000000000005f52604160045260245ffd5b7f4e487b71000000000000000000000000000000000000000000000000000000005f52602260045260245ffd5b5f60028204905060018216806200018657607f821691505b6020821081036200019c576200019b62000141565b5b50919050565b5f819050815f5260205f209050919050565b5f6020601f8301049050919050565b5f82821b905092915050565b5f60088302620002007fffffffffffffffffffffffffffffffffffffffffffffffffffffffffffffffff82620001c3565b6200020c8683620001c3565b95508019841693508086168417925050509392505050565b5f819050919050565b5f819050919050565b5f62000256620002506200024a8462000224565b6200022d565b62000224565b9050919050565b5f819050919050565b620002718362000236565b6200028962000280826200025d565b848454620001cf565b825550505050565b5f90565b6200029f62000291565b620002ac81848462000266565b505050565b5b81811015620002d357620002c75f8262000295565b600181019050620002b2565b5050565b601f8211156200032257620002ec81620001a2565b620002f784620001b4565b8101602085101562000307578190505b6200031f6200031685620001b4565b830182620002b1565b50505b505050565b5f82821c905092915050565b5f620003445f198460080262000327565b1980831691505092915050565b5f6200035e838362000333565b9150826002028217905092915050565b62000379826200010a565b67ffffffffffffffff81111562000395576200039462000114565b5b620003a182546200016e565b620003ae828285620002d7565b5f60209050601f831160018114620003e4575f8415620003cf578287015190505b620003db858262000351565b8655506200044a565b601f198416620003f486620001a2565b5f5b828110156200041d57848901518255600182019150602085019450602081019050620003f6565b868310156200043d578489015162000439601f89168262000333565b8355505b6001600288020188555050505b505050505050565b5f81905092915050565b7f48656c6c6f20576f726c640000000000000000000000000000000000000000005f82015250565b5f62000492600b8362000452565b91506200049f826200045c565b600b82019050919050565b5f620004b68262000484565b9150819050919050565b610bdb80620004ce5f395ff3fe608060405234801561000f575f80fd5b50600436106100a7575f3560e01c80634b3e7e0c1161006f5780634b3e7e0c146101415780636057361d1461015f5780636deecdbe1461017b5780636f760f41146101995780638bab8dd5146101b55780639e7a13ad146101e5576100a7565b806306540f7e146100ab57806326b85ee1146100c95780632cb777a6146100e75780632e64cec114610105578063492bfa1814610123575b5f80fd5b6100b3610216565b6040516100c0919061047b565b60405180910390f35b6100d161021b565b6040516100de91906104d3565b60405180910390f35b6100ef610240565b6040516100fc9190610504565b60405180910390f35b61010d610246565b60405161011a919061047b565b60405180910390f35b61012b61024f565b60405161013891906105a7565b60405180910390f35b6101496102db565b60405161015691906105df565b60405180910390f35b61017960048036038101906101749190610633565b6102e1565b005b6101836102eb565b6040516101909190610678565b60405180910390f35b6101b360048036038101906101ae91906107bd565b6102fd565b005b6101cf60048036038101906101ca9190610817565b610381565b6040516101dc919061047b565b60405180910390f35b6101ff60048036038101906101fa9190610633565b6103ae565b60405161020d92919061085e565b60405180910390f35b5f5481565b60045f9054906101000a900473ffffffffffffffffffffffffffffffffffffffff1681565b60015481565b5f600654905090565b6003805461025c906108b9565b80601f0160208091040260200160405190810160405280929190818152602001828054610288906108b9565b80156102d35780601f106102aa576101008083540402835291602001916102d3565b820191905f5260205f20905b8154815290600101906020018083116102b657829003601f168201915b505050505081565b60055481565b8060068190555050565b60025f9054906101000a900460ff1681565b6007604051806040016040528083815260200184815250908060018154018082558091505060019003905f5260205f2090600202015f909190919091505f820151815f015560208201518160010190816103579190610a86565b5050508060088360405161036b9190610b8f565b9081526020016040518091039020819055505050565b6008818051602081018201805184825260208301602085012081835280955050505050505f915090505481565b600781815481106103bd575f80fd5b905f5260205f2090600202015f91509050805f0154908060010180546103e2906108b9565b80601f016020809104026020016040519081016040528092919081815260200182805461040e906108b9565b80156104595780601f1061043057610100808354040283529160200191610459565b820191905f5260205f20905b81548152906001019060200180831161043c57829003601f168201915b5050505050905082565b5f819050919050565b61047581610463565b82525050565b5f60208201905061048e5f83018461046c565b92915050565b5f73ffffffffffffffffffffffffffffffffffffffff82169050919050565b5f6104bd82610494565b9050919050565b6104cd816104b3565b82525050565b5f6020820190506104e65f8301846104c4565b92915050565b5f819050919050565b6104fe816104ec565b82525050565b5f6020820190506105175f8301846104f5565b92915050565b5f81519050919050565b5f82825260208201905092915050565b5f5b83811015610554578082015181840152602081019050610539565b5f8484015250505050565b5f601f19601f8301169050919050565b5f6105798261051d565b6105838185610527565b9350610593818560208601610537565b61059c8161055f565b840191505092915050565b5f6020820190508181035f8301526105bf818461056f565b905092915050565b5f819050919050565b6105d9816105c7565b82525050565b5f6020820190506105f25f8301846105d0565b92915050565b5f604051905090565b5f80fd5b5f80fd5b61061281610463565b811461061c575f80fd5b50565b5f8135905061062d81610609565b92915050565b5f6020828403121561064857610647610601565b5b5f6106558482850161061f565b91505092915050565b5f8115159050919050565b6106728161065e565b82525050565b5f60208201905061068b5f830184610669565b92915050565b5f80fd5b5f80fd5b7f4e487b71000000000000000000000000000000000000000000000000000000005f52604160045260245ffd5b6106cf8261055f565b810181811067ffffffffffffffff821117156106ee576106ed610699565b5b80604052505050565b5f6107006105f8565b905061070c82826106c6565b919050565b5f67ffffffffffffffff82111561072b5761072a610699565b5b6107348261055f565b9050602081019050919050565b828183375f83830152505050565b5f61076161075c84610711565b6106f7565b90508281526020810184848401111561077d5761077c610695565b5b610788848285610741565b509392505050565b5f82601f8301126107a4576107a3610691565b5b81356107b484826020860161074f565b91505092915050565b5f80604083850312156107d3576107d2610601565b5b5f83013567ffffffffffffffff8111156107f0576107ef610605565b5b6107fc85828601610790565b925050602061080d8582860161061f565b9150509250929050565b5f6020828403121561082c5761082b610601565b5b5f82013567ffffffffffffffff81111561084957610848610605565b5b61085584828501610790565b91505092915050565b5f6040820190506108715f83018561046c565b8181036020830152610883818461056f565b90509392505050565b7f4e487b71000000000000000000000000000000000000000000000000000000005f52602260045260245ffd5b5f60028204905060018216806108d057607f821691505b6020821081036108e3576108e261088c565b5b50919050565b5f819050815f5260205f209050919050565b5f6020601f8301049050919050565b5f82821b905092915050565b5f600883026109457fffffffffffffffffffffffffffffffffffffffffffffffffffffffffffffffff8261090a565b61094f868361090a565b95508019841693508086168417925050509392505050565b5f819050919050565b5f61098a61098561098084610463565b610967565b610463565b9050919050565b5f819050919050565b6109a383610970565b6109b76109af82610991565b848454610916565b825550505050565b5f90565b6109cb6109bf565b6109d681848461099a565b505050565b5b818110156109f9576109ee5f826109c3565b6001810190506109dc565b5050565b601f821115610a3e57610a0f816108e9565b610a18846108fb565b81016020851015610a27578190505b610a3b610a33856108fb565b8301826109db565b50505b505050565b5f82821c905092915050565b5f610a5e5f1984600802610a43565b1980831691505092915050565b5f610a768383610a4f565b9150826002028217905092915050565b610a8f8261051d565b67ffffffffffffffff811115610aa857610aa7610699565b5b610ab282546108b9565b610abd8282856109fd565b5f60209050601f831160018114610aee575f8415610adc578287015190505b610ae68582610a6b565b865550610b4d565b601f198416610afc866108e9565b5f5b82811015610b2357848901518255600182019150602085019450602081019050610afe565b86831015610b405784890151610b3c601f891682610a4f565b8355505b6001600288020188555050505b505050505050565b5f81905092915050565b5f610b698261051d565b610b738185610b55565b9350610b83818560208601610537565b80840191505092915050565b5f610b9a8284610b5f565b91508190509291505056fea26469706673582212205ed90af56c8a4679ac36d5b1efb11c3a4f94891fd4d2f073aae45f15204868b564736f6c63430008180033",
			"opcodes": "PUSH1 0x80 PUSH1 0x40 MSTORE PUSH1 0x7B PUSH0 SSTORE PUSH32 0xFFFFFFFFFFFFFFFFFFFFFFFFFFFFFFFFFFFFFFFFFFFFFFFFFFFFFFFFFFFFFE38 PUSH1 0x1 SSTORE PUSH1 0x1 PUSH1 0x2 PUSH0 PUSH2 0x100 EXP DUP2 SLOAD DUP2 PUSH1 0xFF MUL NOT AND SWAP1 DUP4 ISZERO ISZERO MUL OR SWAP1 SSTORE POP PUSH1 0x40 MLOAD DUP1 PUSH1 0x40 ADD PUSH1 0x40 MSTORE DUP1 PUSH1 0xA DUP2 MSTORE PUSH1 0x20 ADD PUSH32 0x426C6F636B636861696E00000000000000000000000000000000000000000000 DUP2 MSTORE POP PUSH1 0x3 SWAP1 DUP2 PUSH3 0x8C SWAP2 SWAP1 PUSH3 0x36E JUMP JUMPDEST POP CALLER PUSH1 0x4 PUSH0 PUSH2 0x100 EXP DUP2 SLOAD DUP2 PUSH20 0xFFFFFFFFFFFFFFFFFFFFFFFFFFFFFFFFFFFFFFFF MUL NOT AND SWAP1 DUP4 PUSH20 0xFFFFFFFFFFFFFFFFFFFFFFFFFFFFFFFFFFFFFFFF AND MUL OR SWAP1 SSTORE POP PUSH1 0x40 MLOAD PUSH1 0x20 ADD PUSH3 0xDE SWAP1 PUSH3 0x4AA JUMP JUMPDEST PUSH1 0x40 MLOAD PUSH1 0x20 DUP2 DUP4 SUB SUB DUP2 MSTORE SWAP1 PUSH1 0x40 MSTORE DUP1 MLOAD SWAP1 PUSH1 0x20 ADD KECCAK256 PUSH1 0x5 SSTORE CALLVALUE DUP1 ISZERO PUSH3 0x103 JUMPI PUSH0 DUP1 REVERT JUMPDEST POP PUSH3 0x4C0 JUMP JUMPDEST PUSH0 DUP2 MLOAD SWAP1 POP SWAP2 SWAP1 POP JUMP JUMPDEST PUSH32 0x4E487B7100000000000000000000000000000000000000000000000000000000 PUSH0 MSTORE PUSH1 0x41 PUSH1 0x4 MSTORE PUSH1 0x24 PUSH0 REVERT JUMPDEST PUSH32 0x4E487B7100000000000000000000000000000000000000000000000000000000 PUSH0 MSTORE PUSH1 0x22 PUSH1 0x4 MSTORE PUSH1 0x24 PUSH0 REVERT JUMPDEST PUSH0 PUSH1 0x2 DUP3 DIV SWAP1 POP PUSH1 0x1 DUP3 AND DUP1 PUSH3 0x186 JUMPI PUSH1 0x7F DUP3 AND SWAP2 POP JUMPDEST PUSH1 0x20 DUP3 LT DUP2 SUB PUSH3 0x19C JUMPI PUSH3 0x19B PUSH3 0x141 JUMP JUMPDEST JUMPDEST POP SWAP2 SWAP1 POP JUMP JUMPDEST PUSH0 DUP2 SWAP1 POP DUP2 PUSH0 MSTORE PUSH1 0x20 PUSH0 KECCAK256 SWAP1 POP SWAP2 SWAP1 POP JUMP JUMPDEST PUSH0 PUSH1 0x20 PUSH1 0x1F DUP4 ADD DIV SWAP1 POP SWAP2 SWAP1 POP JUMP JUMPDEST PUSH0 DUP3 DUP3 SHL SWAP1 POP SWAP3 SWAP2 POP POP JUMP JUMPDEST PUSH0 PUSH1 0x8 DUP4 MUL PUSH3 0x200 PUSH32 0xFFFFFFFFFFFFFFFFFFFFFFFFFFFFFFFFFFFFFFFFFFFFFFFFFFFFFFFFFFFFFFFF DUP3 PUSH3 0x1C3 JUMP JUMPDEST PUSH3 0x20C DUP7 DUP4 PUSH3 0x1C3 JUMP JUMPDEST SWAP6 POP DUP1 NOT DUP5 AND SWAP4 POP DUP1 DUP7 AND DUP5 OR SWAP3 POP POP POP SWAP4 SWAP3 POP POP POP JUMP JUMPDEST PUSH0 DUP2 SWAP1 POP SWAP2 SWAP1 POP JUMP JUMPDEST PUSH0 DUP2 SWAP1 POP SWAP2 SWAP1 POP JUMP JUMPDEST PUSH0 PUSH3 0x256 PUSH3 0x250 PUSH3 0x24A DUP5 PUSH3 0x224 JUMP JUMPDEST PUSH3 0x22D JUMP JUMPDEST PUSH3 0x224 JUMP JUMPDEST SWAP1 POP SWAP2 SWAP1 POP JUMP JUMPDEST PUSH0 DUP2 SWAP1 POP SWAP2 SWAP1 POP JUMP JUMPDEST PUSH3 0x271 DUP4 PUSH3 0x236 JUMP JUMPDEST PUSH3 0x289 PUSH3 0x280 DUP3 PUSH3 0x25D JUMP JUMPDEST DUP5 DUP5 SLOAD PUSH3 0x1CF JUMP JUMPDEST DUP3 SSTORE POP POP POP POP JUMP JUMPDEST PUSH0 SWAP1 JUMP JUMPDEST PUSH3 0x29F PUSH3 0x291 JUMP JUMPDEST PUSH3 0x2AC DUP2 DUP5 DUP5 PUSH3 0x266 JUMP JUMPDEST POP POP POP JUMP JUMPDEST JUMPDEST DUP2 DUP2 LT ISZERO PUSH3 0x2D3 JUMPI PUSH3 0x2C7 PUSH0 DUP3 PUSH3 0x295 JUMP JUMPDEST PUSH1 0x1 DUP2 ADD SWAP1 POP PUSH3 0x2B2 JUMP JUMPDEST POP POP JUMP JUMPDEST PUSH1 0x1F DUP3 GT ISZERO PUSH3 0x322 JUMPI PUSH3 0x2EC DUP2 PUSH3 0x1A2 JUMP JUMPDEST PUSH3 0x2F7 DUP5 PUSH3 0x1B4 JUMP JUMPDEST DUP2 ADD PUSH1 0x20 DUP6 LT ISZERO PUSH3 0x307 JUMPI DUP2 SWAP1 POP JUMPDEST PUSH3 0x31F PUSH3 0x316 DUP6 PUSH3 0x1B4 JUMP JUMPDEST DUP4 ADD DUP3 PUSH3 0x2B1 JUMP JUMPDEST POP POP JUMPDEST POP POP POP JUMP JUMPDEST PUSH0 DUP3 DUP3 SHR SWAP1 POP SWAP3 SWAP2 POP POP JUMP JUMPDEST PUSH0 PUSH3 0x344 PUSH0 NOT DUP5 PUSH1 0x8 MUL PUSH3 0x327 JUMP JUMPDEST NOT DUP1 DUP4 AND SWAP2 POP POP SWAP3 SWAP2 POP POP JUMP JUMPDEST PUSH0 PUSH3 0x35E DUP4 DUP4 PUSH3 0x333 JUMP JUMPDEST SWAP2 POP DUP3 PUSH1 0x2 MUL DUP3 OR SWAP1 POP SWAP3 SWAP2 POP POP JUMP JUMPDEST PUSH3 0x379 DUP3 PUSH3 0x10A JUMP JUMPDEST PUSH8 0xFFFFFFFFFFFFFFFF DUP2 GT ISZERO PUSH3 0x395 JUMPI PUSH3 0x394 PUSH3 0x114 JUMP JUMPDEST JUMPDEST PUSH3 0x3A1 DUP3 SLOAD PUSH3 0x16E JUMP JUMPDEST PUSH3 0x3AE DUP3 DUP3 DUP6 PUSH3 0x2D7 JUMP JUMPDEST PUSH0 PUSH1 0x20 SWAP1 POP PUSH1 0x1F DUP4 GT PUSH1 0x1 DUP2 EQ PUSH3 0x3E4 JUMPI PUSH0 DUP5 ISZERO PUSH3 0x3CF JUMPI DUP3 DUP8 ADD MLOAD SWAP1 POP JUMPDEST PUSH3 0x3DB DUP6 DUP3 PUSH3 0x351 JUMP JUMPDEST DUP7 SSTORE POP PUSH3 0x44A JUMP JUMPDEST PUSH1 0x1F NOT DUP5 AND PUSH3 0x3F4 DUP7 PUSH3 0x1A2 JUMP JUMPDEST PUSH0 JUMPDEST DUP3 DUP2 LT ISZERO PUSH3 0x41D JUMPI DUP5 DUP10 ADD MLOAD DUP3 SSTORE PUSH1 0x1 DUP3 ADD SWAP2 POP PUSH1 0x20 DUP6 ADD SWAP5 POP PUSH1 0x20 DUP2 ADD SWAP1 POP PUSH3 0x3F6 JUMP JUMPDEST DUP7 DUP4 LT ISZERO PUSH3 0x43D JUMPI DUP5 DUP10 ADD MLOAD PUSH3 0x439 PUSH1 0x1F DUP10 AND DUP3 PUSH3 0x333 JUMP JUMPDEST DUP4 SSTORE POP JUMPDEST PUSH1 0x1 PUSH1 0x2 DUP9 MUL ADD DUP9 SSTORE POP POP POP JUMPDEST POP POP POP POP POP POP JUMP JUMPDEST PUSH0 DUP2 SWAP1 POP SWAP3 SWAP2 POP POP JUMP JUMPDEST PUSH32 0x48656C6C6F20576F726C64000000000000000000000000000000000000000000 PUSH0 DUP3 ADD MSTORE POP JUMP JUMPDEST PUSH0 PUSH3 0x492 PUSH1 0xB DUP4 PUSH3 0x452 JUMP JUMPDEST SWAP2 POP PUSH3 0x49F DUP3 PUSH3 0x45C JUMP JUMPDEST PUSH1 0xB DUP3 ADD SWAP1 POP SWAP2 SWAP1 POP JUMP JUMPDEST PUSH0 PUSH3 0x4B6 DUP3 PUSH3 0x484 JUMP JUMPDEST SWAP2 POP DUP2 SWAP1 POP SWAP2 SWAP1 POP JUMP JUMPDEST PUSH2 0xBDB DUP1 PUSH3 0x4CE PUSH0 CODECOPY PUSH0 RETURN INVALID PUSH1 0x80 PUSH1 0x40 MSTORE CALLVALUE DUP1 ISZERO PUSH2 0xF JUMPI PUSH0 DUP1 REVERT JUMPDEST POP PUSH1 0x4 CALLDATASIZE LT PUSH2 0xA7 JUMPI PUSH0 CALLDATALOAD PUSH1 0xE0 SHR DUP1 PUSH4 0x4B3E7E0C GT PUSH2 0x6F JUMPI DUP1 PUSH4 0x4B3E7E0C EQ PUSH2 0x141 JUMPI DUP1 PUSH4 0x6057361D EQ PUSH2 0x15F JUMPI DUP1 PUSH4 0x6DEECDBE EQ PUSH2 0x17B JUMPI DUP1 PUSH4 0x6F760F41 EQ PUSH2 0x199 JUMPI DUP1 PUSH4 0x8BAB8DD5 EQ PUSH2 0x1B5 JUMPI DUP1 PUSH4 0x9E7A13AD EQ PUSH2 0x1E5 JUMPI PUSH2 0xA7 JUMP JUMPDEST DUP1 PUSH4 0x6540F7E EQ PUSH2 0xAB JUMPI DUP1 PUSH4 0x26B85EE1 EQ PUSH2 0xC9 JUMPI DUP1 PUSH4 0x2CB777A6 EQ PUSH2 0xE7 JUMPI DUP1 PUSH4 0x2E64CEC1 EQ PUSH2 0x105 JUMPI DUP1 PUSH4 0x492BFA18 EQ PUSH2 0x123 JUMPI JUMPDEST PUSH0 DUP1 REVERT JUMPDEST PUSH2 0xB3 PUSH2 0x216 JUMP JUMPDEST PUSH1 0x40 MLOAD PUSH2 0xC0 SWAP2 SWAP1 PUSH2 0x47B JUMP JUMPDEST PUSH1 0x40 MLOAD DUP1 SWAP2 SUB SWAP1 RETURN JUMPDEST PUSH2 0xD1 PUSH2 0x21B JUMP JUMPDEST PUSH1 0x40 MLOAD PUSH2 0xDE SWAP2 SWAP1 PUSH2 0x4D3 JUMP JUMPDEST PUSH1 0x40 MLOAD DUP1 SWAP2 SUB SWAP1 RETURN JUMPDEST PUSH2 0xEF PUSH2 0x240 JUMP JUMPDEST PUSH1 0x40 MLOAD PUSH2 0xFC SWAP2 SWAP1 PUSH2 0x504 JUMP JUMPDEST PUSH1 0x40 MLOAD DUP1 SWAP2 SUB SWAP1 RETURN JUMPDEST PUSH2 0x10D PUSH2 0x246 JUMP JUMPDEST PUSH1 0x40 MLOAD PUSH2 0x11A SWAP2 SWAP1 PUSH2 0x47B JUMP JUMPDEST PUSH1 0x40 MLOAD DUP1 SWAP2 SUB SWAP1 RETURN JUMPDEST PUSH2 0x12B PUSH2 0x24F JUMP JUMPDEST PUSH1 0x40 MLOAD PUSH2 0x138 SWAP2 SWAP1 PUSH2 0x5A7 JUMP JUMPDEST PUSH1 0x40 MLOAD DUP1 SWAP2 SUB SWAP1 RETURN JUMPDEST PUSH2 0x149 PUSH2 0x2DB JUMP JUMPDEST PUSH1 0x40 MLOAD PUSH2 0x156 SWAP2 SWAP1 PUSH2 0x5DF JUMP JUMPDEST PUSH1 0x40 MLOAD DUP1 SWAP2 SUB SWAP1 RETURN JUMPDEST PUSH2 0x179 PUSH1 0x4 DUP1 CALLDATASIZE SUB DUP2 ADD SWAP1 PUSH2 0x174 SWAP2 SWAP1 PUSH2 0x633 JUMP JUMPDEST PUSH2 0x2E1 JUMP JUMPDEST STOP JUMPDEST PUSH2 0x183 PUSH2 0x2EB JUMP JUMPDEST PUSH1 0x40 MLOAD PUSH2 0x190 SWAP2 SWAP1 PUSH2 0x678 JUMP JUMPDEST PUSH1 0x40 MLOAD DUP1 SWAP2 SUB SWAP1 RETURN JUMPDEST PUSH2 0x1B3 PUSH1 0x4 DUP1 CALLDATASIZE SUB DUP2 ADD SWAP1 PUSH2 0x1AE SWAP2 SWAP1 PUSH2 0x7BD JUMP JUMPDEST PUSH2 0x2FD JUMP JUMPDEST STOP JUMPDEST PUSH2 0x1CF PUSH1 0x4 DUP1 CALLDATASIZE SUB DUP2 ADD SWAP1 PUSH2 0x1CA SWAP2 SWAP1 PUSH2 0x817 JUMP JUMPDEST PUSH2 0x381 JUMP JUMPDEST PUSH1 0x40 MLOAD PUSH2 0x1DC SWAP2 SWAP1 PUSH2 0x47B JUMP JUMPDEST PUSH1 0x40 MLOAD DUP1 SWAP2 SUB SWAP1 RETURN JUMPDEST PUSH2 0x1FF PUSH1 0x4 DUP1 CALLDATASIZE SUB DUP2 ADD SWAP1 PUSH2 0x1FA SWAP2 SWAP1 PUSH2 0x633 JUMP JUMPDEST PUSH2 0x3AE JUMP JUMPDEST PUSH1 0x40 MLOAD PUSH2 0x20D SWAP3 SWAP2 SWAP1 PUSH2 0x85E JUMP JUMPDEST PUSH1 0x40 MLOAD DUP1 SWAP2 SUB SWAP1 RETURN JUMPDEST PUSH0 SLOAD DUP2 JUMP JUMPDEST PUSH1 0x4 PUSH0 SWAP1 SLOAD SWAP1 PUSH2 0x100 EXP SWAP1 DIV PUSH20 0xFFFFFFFFFFFFFFFFFFFFFFFFFFFFFFFFFFFFFFFF AND DUP2 JUMP JUMPDEST PUSH1 0x1 SLOAD DUP2 JUMP JUMPDEST PUSH0 PUSH1 0x6 SLOAD SWAP1 POP SWAP1 JUMP JUMPDEST PUSH1 0x3 DUP1 SLOAD PUSH2 0x25C SWAP1 PUSH2 0x8B9 JUMP JUMPDEST DUP1 PUSH1 0x1F ADD PUSH1 0x20 DUP1 SWAP2 DIV MUL PUSH1 0x20 ADD PUSH1 0x40 MLOAD SWAP1 DUP2 ADD PUSH1 0x40 MSTORE DUP1 SWAP3 SWAP2 SWAP1 DUP2 DUP2 MSTORE PUSH1 0x20 ADD DUP3 DUP1 SLOAD PUSH2 0x288 SWAP1 PUSH2 0x8B9 JUMP JUMPDEST DUP1 ISZERO PUSH2 0x2D3 JUMPI DUP1 PUSH1 0x1F LT PUSH2 0x2AA JUMPI PUSH2 0x100 DUP1 DUP4 SLOAD DIV MUL DUP4 MSTORE SWAP2 PUSH1 0x20 ADD SWAP2 PUSH2 0x2D3 JUMP JUMPDEST DUP3 ADD SWAP2 SWAP1 PUSH0 MSTORE PUSH1 0x20 PUSH0 KECCAK256 SWAP1 JUMPDEST DUP2 SLOAD DUP2 MSTORE SWAP1 PUSH1 0x1 ADD SWAP1 PUSH1 0x20 ADD DUP1 DUP4 GT PUSH2 0x2B6 JUMPI DUP3 SWAP1 SUB PUSH1 0x1F AND DUP3 ADD SWAP2 JUMPDEST POP POP POP POP POP DUP2 JUMP JUMPDEST PUSH1 0x5 SLOAD DUP2 JUMP JUMPDEST DUP1 PUSH1 0x6 DUP2 SWAP1 SSTORE POP POP JUMP JUMPDEST PUSH1 0x2 PUSH0 SWAP1 SLOAD SWAP1 PUSH2 0x100 EXP SWAP1 DIV PUSH1 0xFF AND DUP2 JUMP JUMPDEST PUSH1 0x7 PUSH1 0x40 MLOAD DUP1 PUSH1 0x40 ADD PUSH1 0x40 MSTORE DUP1 DUP4 DUP2 MSTORE PUSH1 0x20 ADD DUP5 DUP2 MSTORE POP SWAP1 DUP1 PUSH1 0x1 DUP2 SLOAD ADD DUP1 DUP3 SSTORE DUP1 SWAP2 POP POP PUSH1 0x1 SWAP1 SUB SWAP1 PUSH0 MSTORE PUSH1 0x20 PUSH0 KECCAK256 SWAP1 PUSH1 0x2 MUL ADD PUSH0 SWAP1 SWAP2 SWAP1 SWAP2 SWAP1 SWAP2 POP PUSH0 DUP3 ADD MLOAD DUP2 PUSH0 ADD SSTORE PUSH1 0x20 DUP3 ADD MLOAD DUP2 PUSH1 0x1 ADD SWAP1 DUP2 PUSH2 0x357 SWAP2 SWAP1 PUSH2 0xA86 JUMP JUMPDEST POP POP POP DUP1 PUSH1 0x8 DUP4 PUSH1 0x40 MLOAD PUSH2 0x36B SWAP2 SWAP1 PUSH2 0xB8F JUMP JUMPDEST SWAP1 DUP2 MSTORE PUSH1 0x20 ADD PUSH1 0x40 MLOAD DUP1 SWAP2 SUB SWAP1 KECCAK256 DUP2 SWAP1 SSTORE POP POP POP JUMP JUMPDEST PUSH1 0x8 DUP2 DUP1 MLOAD PUSH1 0x20 DUP2 ADD DUP3 ADD DUP1 MLOAD DUP5 DUP3 MSTORE PUSH1 0x20 DUP4 ADD PUSH1 0x20 DUP6 ADD KECCAK256 DUP2 DUP4 MSTORE DUP1 SWAP6 POP POP POP POP POP POP PUSH0 SWAP2 POP SWAP1 POP SLOAD DUP2 JUMP JUMPDEST PUSH1 0x7 DUP2 DUP2 SLOAD DUP2 LT PUSH2 0x3BD JUMPI PUSH0 DUP1 REVERT JUMPDEST SWAP1 PUSH0 MSTORE PUSH1 0x20 PUSH0 KECCAK256 SWAP1 PUSH1 0x2 MUL ADD PUSH0 SWAP2 POP SWAP1 POP DUP1 PUSH0 ADD SLOAD SWAP1 DUP1 PUSH1 0x1 ADD DUP1 SLOAD PUSH2 0x3E2 SWAP1 PUSH2 0x8B9 JUMP JUMPDEST DUP1 PUSH1 0x1F ADD PUSH1 0x20 DUP1 SWAP2 DIV MUL PUSH1 0x20 ADD PUSH1 0x40 MLOAD SWAP1 DUP2 ADD PUSH1 0x40 MSTORE DUP1 SWAP3 SWAP2 SWAP1 DUP2 DUP2 MSTORE PUSH1 0x20 ADD DUP3 DUP1 SLOAD PUSH2 0x40E SWAP1 PUSH2 0x8B9 JUMP JUMPDEST DUP1 ISZERO PUSH2 0x459 JUMPI DUP1 PUSH1 0x1F LT PUSH2 0x430 JUMPI PUSH2 0x100 DUP1 DUP4 SLOAD DIV MUL DUP4 MSTORE SWAP2 PUSH1 0x20 ADD SWAP2 PUSH2 0x459 JUMP JUMPDEST DUP3 ADD SWAP2 SWAP1 PUSH0 MSTORE PUSH1 0x20 PUSH0 KECCAK256 SWAP1 JUMPDEST DUP2 SLOAD DUP2 MSTORE SWAP1 PUSH1 0x1 ADD SWAP1 PUSH1 0x20 ADD DUP1 DUP4 GT PUSH2 0x43C JUMPI DUP3 SWAP1 SUB PUSH1 0x1F AND DUP3 ADD SWAP2 JUMPDEST POP POP POP POP POP SWAP1 POP DUP3 JUMP JUMPDEST PUSH0 DUP2 SWAP1 POP SWAP2 SWAP1 POP JUMP JUMPDEST PUSH2 0x475 DUP2 PUSH2 0x463 JUMP JUMPDEST DUP3 MSTORE POP POP JUMP JUMPDEST PUSH0 PUSH1 0x20 DUP3 ADD SWAP1 POP PUSH2 0x48E PUSH0 DUP4 ADD DUP5 PUSH2 0x46C JUMP JUMPDEST SWAP3 SWAP2 POP POP JUMP JUMPDEST PUSH0 PUSH20 0xFFFFFFFFFFFFFFFFFFFFFFFFFFFFFFFFFFFFFFFF DUP3 AND SWAP1 POP SWAP2 SWAP1 POP JUMP JUMPDEST PUSH0 PUSH2 0x4BD DUP3 PUSH2 0x494 JUMP JUMPDEST SWAP1 POP SWAP2 SWAP1 POP JUMP JUMPDEST PUSH2 0x4CD DUP2 PUSH2 0x4B3 JUMP JUMPDEST DUP3 MSTORE POP POP JUMP JUMPDEST PUSH0 PUSH1 0x20 DUP3 ADD SWAP1 POP PUSH2 0x4E6 PUSH0 DUP4 ADD DUP5 PUSH2 0x4C4 JUMP JUMPDEST SWAP3 SWAP2 POP POP JUMP JUMPDEST PUSH0 DUP2 SWAP1 POP SWAP2 SWAP1 POP JUMP JUMPDEST PUSH2 0x4FE DUP2 PUSH2 0x4EC JUMP JUMPDEST DUP3 MSTORE POP POP JUMP JUMPDEST PUSH0 PUSH1 0x20 DUP3 ADD SWAP1 POP PUSH2 0x517 PUSH0 DUP4 ADD DUP5 PUSH2 0x4F5 JUMP JUMPDEST SWAP3 SWAP2 POP POP JUMP JUMPDEST PUSH0 DUP2 MLOAD SWAP1 POP SWAP2 SWAP1 POP JUMP JUMPDEST PUSH0 DUP3 DUP3 MSTORE PUSH1 0x20 DUP3 ADD SWAP1 POP SWAP3 SWAP2 POP POP JUMP JUMPDEST PUSH0 JUMPDEST DUP4 DUP2 LT ISZERO PUSH2 0x554 JUMPI DUP1 DUP3 ADD MLOAD DUP2 DUP5 ADD MSTORE PUSH1 0x20 DUP2 ADD SWAP1 POP PUSH2 0x539 JUMP JUMPDEST PUSH0 DUP5 DUP5 ADD MSTORE POP POP POP POP JUMP JUMPDEST PUSH0 PUSH1 0x1F NOT PUSH1 0x1F DUP4 ADD AND SWAP1 POP SWAP2 SWAP1 POP JUMP JUMPDEST PUSH0 PUSH2 0x579 DUP3 PUSH2 0x51D JUMP JUMPDEST PUSH2 0x583 DUP2 DUP6 PUSH2 0x527 JUMP JUMPDEST SWAP4 POP PUSH2 0x593 DUP2 DUP6 PUSH1 0x20 DUP7 ADD PUSH2 0x537 JUMP JUMPDEST PUSH2 0x59C DUP2 PUSH2 0x55F JUMP JUMPDEST DUP5 ADD SWAP2 POP POP SWAP3 SWAP2 POP POP JUMP JUMPDEST PUSH0 PUSH1 0x20 DUP3 ADD SWAP1 POP DUP2 DUP2 SUB PUSH0 DUP4 ADD MSTORE PUSH2 0x5BF DUP2 DUP5 PUSH2 0x56F JUMP JUMPDEST SWAP1 POP SWAP3 SWAP2 POP POP JUMP JUMPDEST PUSH0 DUP2 SWAP1 POP SWAP2 SWAP1 POP JUMP JUMPDEST PUSH2 0x5D9 DUP2 PUSH2 0x5C7 JUMP JUMPDEST DUP3 MSTORE POP POP JUMP JUMPDEST PUSH0 PUSH1 0x20 DUP3 ADD SWAP1 POP PUSH2 0x5F2 PUSH0 DUP4 ADD DUP5 PUSH2 0x5D0 JUMP JUMPDEST SWAP3 SWAP2 POP POP JUMP JUMPDEST PUSH0 PUSH1 0x40 MLOAD SWAP1 POP SWAP1 JUMP JUMPDEST PUSH0 DUP1 REVERT JUMPDEST PUSH0 DUP1 REVERT JUMPDEST PUSH2 0x612 DUP2 PUSH2 0x463 JUMP JUMPDEST DUP2 EQ PUSH2 0x61C JUMPI PUSH0 DUP1 REVERT JUMPDEST POP JUMP JUMPDEST PUSH0 DUP2 CALLDATALOAD SWAP1 POP PUSH2 0x62D DUP2 PUSH2 0x609 JUMP JUMPDEST SWAP3 SWAP2 POP POP JUMP JUMPDEST PUSH0 PUSH1 0x20 DUP3 DUP5 SUB SLT ISZERO PUSH2 0x648 JUMPI PUSH2 0x647 PUSH2 0x601 JUMP JUMPDEST JUMPDEST PUSH0 PUSH2 0x655 DUP5 DUP3 DUP6 ADD PUSH2 0x61F JUMP JUMPDEST SWAP2 POP POP SWAP3 SWAP2 POP POP JUMP JUMPDEST PUSH0 DUP2 ISZERO ISZERO SWAP1 POP SWAP2 SWAP1 POP JUMP JUMPDEST PUSH2 0x672 DUP2 PUSH2 0x65E JUMP JUMPDEST DUP3 MSTORE POP POP JUMP JUMPDEST PUSH0 PUSH1 0x20 DUP3 ADD SWAP1 POP PUSH2 0x68B PUSH0 DUP4 ADD DUP5 PUSH2 0x669 JUMP JUMPDEST SWAP3 SWAP2 POP POP JUMP JUMPDEST PUSH0 DUP1 REVERT JUMPDEST PUSH0 DUP1 REVERT JUMPDEST PUSH32 0x4E487B7100000000000000000000000000000000000000000000000000000000 PUSH0 MSTORE PUSH1 0x41 PUSH1 0x4 MSTORE PUSH1 0x24 PUSH0 REVERT JUMPDEST PUSH2 0x6CF DUP3 PUSH2 0x55F JUMP JUMPDEST DUP2 ADD DUP2 DUP2 LT PUSH8 0xFFFFFFFFFFFFFFFF DUP3 GT OR ISZERO PUSH2 0x6EE JUMPI PUSH2 0x6ED PUSH2 0x699 JUMP JUMPDEST JUMPDEST DUP1 PUSH1 0x40 MSTORE POP POP POP JUMP JUMPDEST PUSH0 PUSH2 0x700 PUSH2 0x5F8 JUMP JUMPDEST SWAP1 POP PUSH2 0x70C DUP3 DUP3 PUSH2 0x6C6 JUMP JUMPDEST SWAP2 SWAP1 POP JUMP JUMPDEST PUSH0 PUSH8 0xFFFFFFFFFFFFFFFF DUP3 GT ISZERO PUSH2 0x72B JUMPI PUSH2 0x72A PUSH2 0x699 JUMP JUMPDEST JUMPDEST PUSH2 0x734 DUP3 PUSH2 0x55F JUMP JUMPDEST SWAP1 POP PUSH1 0x20 DUP2 ADD SWAP1 POP SWAP2 SWAP1 POP JUMP JUMPDEST DUP3 DUP2 DUP4 CALLDATACOPY PUSH0 DUP4 DUP4 ADD MSTORE POP POP POP JUMP JUMPDEST PUSH0 PUSH2 0x761 PUSH2 0x75C DUP5 PUSH2 0x711 JUMP JUMPDEST PUSH2 0x6F7 JUMP JUMPDEST SWAP1 POP DUP3 DUP2 MSTORE PUSH1 0x20 DUP2 ADD DUP5 DUP5 DUP5 ADD GT ISZERO PUSH2 0x77D JUMPI PUSH2 0x77C PUSH2 0x695 JUMP JUMPDEST JUMPDEST PUSH2 0x788 DUP5 DUP3 DUP6 PUSH2 0x741 JUMP JUMPDEST POP SWAP4 SWAP3 POP POP POP JUMP JUMPDEST PUSH0 DUP3 PUSH1 0x1F DUP4 ADD SLT PUSH2 0x7A4 JUMPI PUSH2 0x7A3 PUSH2 0x691 JUMP JUMPDEST JUMPDEST DUP2 CALLDATALOAD PUSH2 0x7B4 DUP5 DUP3 PUSH1 0x20 DUP7 ADD PUSH2 0x74F JUMP JUMPDEST SWAP2 POP POP SWAP3 SWAP2 POP POP JUMP JUMPDEST PUSH0 DUP1 PUSH1 0x40 DUP4 DUP6 SUB SLT ISZERO PUSH2 0x7D3 JUMPI PUSH2 0x7D2 PUSH2 0x601 JUMP JUMPDEST JUMPDEST PUSH0 DUP4 ADD CALLDATALOAD PUSH8 0xFFFFFFFFFFFFFFFF DUP2 GT ISZERO PUSH2 0x7F0 JUMPI PUSH2 0x7EF PUSH2 0x605 JUMP JUMPDEST JUMPDEST PUSH2 0x7FC DUP6 DUP3 DUP7 ADD PUSH2 0x790 JUMP JUMPDEST SWAP3 POP POP PUSH1 0x20 PUSH2 0x80D DUP6 DUP3 DUP7 ADD PUSH2 0x61F JUMP JUMPDEST SWAP2 POP POP SWAP3 POP SWAP3 SWAP1 POP JUMP JUMPDEST PUSH0 PUSH1 0x20 DUP3 DUP5 SUB SLT ISZERO PUSH2 0x82C JUMPI PUSH2 0x82B PUSH2 0x601 JUMP JUMPDEST JUMPDEST PUSH0 DUP3 ADD CALLDATALOAD PUSH8 0xFFFFFFFFFFFFFFFF DUP2 GT ISZERO PUSH2 0x849 JUMPI PUSH2 0x848 PUSH2 0x605 JUMP JUMPDEST JUMPDEST PUSH2 0x855 DUP5 DUP3 DUP6 ADD PUSH2 0x790 JUMP JUMPDEST SWAP2 POP POP SWAP3 SWAP2 POP POP JUMP JUMPDEST PUSH0 PUSH1 0x40 DUP3 ADD SWAP1 POP PUSH2 0x871 PUSH0 DUP4 ADD DUP6 PUSH2 0x46C JUMP JUMPDEST DUP2 DUP2 SUB PUSH1 0x20 DUP4 ADD MSTORE PUSH2 0x883 DUP2 DUP5 PUSH2 0x56F JUMP JUMPDEST SWAP1 POP SWAP4 SWAP3 POP POP POP JUMP JUMPDEST PUSH32 0x4E487B7100000000000000000000000000000000000000000000000000000000 PUSH0 MSTORE PUSH1 0x22 PUSH1 0x4 MSTORE PUSH1 0x24 PUSH0 REVERT JUMPDEST PUSH0 PUSH1 0x2 DUP3 DIV SWAP1 POP PUSH1 0x1 DUP3 AND DUP1 PUSH2 0x8D0 JUMPI PUSH1 0x7F DUP3 AND SWAP2 POP JUMPDEST PUSH1 0x20 DUP3 LT DUP2 SUB PUSH2 0x8E3 JUMPI PUSH2 0x8E2 PUSH2 0x88C JUMP JUMPDEST JUMPDEST POP SWAP2 SWAP1 POP JUMP JUMPDEST PUSH0 DUP2 SWAP1 POP DUP2 PUSH0 MSTORE PUSH1 0x20 PUSH0 KECCAK256 SWAP1 POP SWAP2 SWAP1 POP JUMP JUMPDEST PUSH0 PUSH1 0x20 PUSH1 0x1F DUP4 ADD DIV SWAP1 POP SWAP2 SWAP1 POP JUMP JUMPDEST PUSH0 DUP3 DUP3 SHL SWAP1 POP SWAP3 SWAP2 POP POP JUMP JUMPDEST PUSH0 PUSH1 0x8 DUP4 MUL PUSH2 0x945 PUSH32 0xFFFFFFFFFFFFFFFFFFFFFFFFFFFFFFFFFFFFFFFFFFFFFFFFFFFFFFFFFFFFFFFF DUP3 PUSH2 0x90A JUMP JUMPDEST PUSH2 0x94F DUP7 DUP4 PUSH2 0x90A JUMP JUMPDEST SWAP6 POP DUP1 NOT DUP5 AND SWAP4 POP DUP1 DUP7 AND DUP5 OR SWAP3 POP POP POP SWAP4 SWAP3 POP POP POP JUMP JUMPDEST PUSH0 DUP2 SWAP1 POP SWAP2 SWAP1 POP JUMP JUMPDEST PUSH0 PUSH2 0x98A PUSH2 0x985 PUSH2 0x980 DUP5 PUSH2 0x463 JUMP JUMPDEST PUSH2 0x967 JUMP JUMPDEST PUSH2 0x463 JUMP JUMPDEST SWAP1 POP SWAP2 SWAP1 POP JUMP JUMPDEST PUSH0 DUP2 SWAP1 POP SWAP2 SWAP1 POP JUMP JUMPDEST PUSH2 0x9A3 DUP4 PUSH2 0x970 JUMP JUMPDEST PUSH2 0x9B7 PUSH2 0x9AF DUP3 PUSH2 0x991 JUMP JUMPDEST DUP5 DUP5 SLOAD PUSH2 0x916 JUMP JUMPDEST DUP3 SSTORE POP POP POP POP JUMP JUMPDEST PUSH0 SWAP1 JUMP JUMPDEST PUSH2 0x9CB PUSH2 0x9BF JUMP JUMPDEST PUSH2 0x9D6 DUP2 DUP5 DUP5 PUSH2 0x99A JUMP JUMPDEST POP POP POP JUMP JUMPDEST JUMPDEST DUP2 DUP2 LT ISZERO PUSH2 0x9F9 JUMPI PUSH2 0x9EE PUSH0 DUP3 PUSH2 0x9C3 JUMP JUMPDEST PUSH1 0x1 DUP2 ADD SWAP1 POP PUSH2 0x9DC JUMP JUMPDEST POP POP JUMP JUMPDEST PUSH1 0x1F DUP3 GT ISZERO PUSH2 0xA3E JUMPI PUSH2 0xA0F DUP2 PUSH2 0x8E9 JUMP JUMPDEST PUSH2 0xA18 DUP5 PUSH2 0x8FB JUMP JUMPDEST DUP2 ADD PUSH1 0x20 DUP6 LT ISZERO PUSH2 0xA27 JUMPI DUP2 SWAP1 POP JUMPDEST PUSH2 0xA3B PUSH2 0xA33 DUP6 PUSH2 0x8FB JUMP JUMPDEST DUP4 ADD DUP3 PUSH2 0x9DB JUMP JUMPDEST POP POP JUMPDEST POP POP POP JUMP JUMPDEST PUSH0 DUP3 DUP3 SHR SWAP1 POP SWAP3 SWAP2 POP POP JUMP JUMPDEST PUSH0 PUSH2 0xA5E PUSH0 NOT DUP5 PUSH1 0x8 MUL PUSH2 0xA43 JUMP JUMPDEST NOT DUP1 DUP4 AND SWAP2 POP POP SWAP3 SWAP2 POP POP JUMP JUMPDEST PUSH0 PUSH2 0xA76 DUP4 DUP4 PUSH2 0xA4F JUMP JUMPDEST SWAP2 POP DUP3 PUSH1 0x2 MUL DUP3 OR SWAP1 POP SWAP3 SWAP2 POP POP JUMP JUMPDEST PUSH2 0xA8F DUP3 PUSH2 0x51D JUMP JUMPDEST PUSH8 0xFFFFFFFFFFFFFFFF DUP2 GT ISZERO PUSH2 0xAA8 JUMPI PUSH2 0xAA7 PUSH2 0x699 JUMP JUMPDEST JUMPDEST PUSH2 0xAB2 DUP3 SLOAD PUSH2 0x8B9 JUMP JUMPDEST PUSH2 0xABD DUP3 DUP3 DUP6 PUSH2 0x9FD JUMP JUMPDEST PUSH0 PUSH1 0x20 SWAP1 POP PUSH1 0x1F DUP4 GT PUSH1 0x1 DUP2 EQ PUSH2 0xAEE JUMPI PUSH0 DUP5 ISZERO PUSH2 0xADC JUMPI DUP3 DUP8 ADD MLOAD SWAP1 POP JUMPDEST PUSH2 0xAE6 DUP6 DUP3 PUSH2 0xA6B JUMP JUMPDEST DUP7 SSTORE POP PUSH2 0xB4D JUMP JUMPDEST PUSH1 0x1F NOT DUP5 AND PUSH2 0xAFC DUP7 PUSH2 0x8E9 JUMP JUMPDEST PUSH0 JUMPDEST DUP3 DUP2 LT ISZERO PUSH2 0xB23 JUMPI DUP5 DUP10 ADD MLOAD DUP3 SSTORE PUSH1 0x1 DUP3 ADD SWAP2 POP PUSH1 0x20 DUP6 ADD SWAP5 POP PUSH1 0x20 DUP2 ADD SWAP1 POP PUSH2 0xAFE JUMP JUMPDEST DUP7 DUP4 LT ISZERO PUSH2 0xB40 JUMPI DUP5 DUP10 ADD MLOAD PUSH2 0xB3C PUSH1 0x1F DUP10 AND DUP3 PUSH2 0xA4F JUMP JUMPDEST DUP4 SSTORE POP JUMPDEST PUSH1 0x1 PUSH1 0x2 DUP9 MUL ADD DUP9 SSTORE POP POP POP JUMPDEST POP POP POP POP POP POP JUMP JUMPDEST PUSH0 DUP2 SWAP1 POP SWAP3 SWAP2 POP POP JUMP JUMPDEST PUSH0 PUSH2 0xB69 DUP3 PUSH2 0x51D JUMP JUMPDEST PUSH2 0xB73 DUP2 DUP6 PUSH2 0xB55 JUMP JUMPDEST SWAP4 POP PUSH2 0xB83 DUP2 DUP6 PUSH1 0x20 DUP7 ADD PUSH2 0x537 JUMP JUMPDEST DUP1 DUP5 ADD SWAP2 POP POP SWAP3 SWAP2 POP POP JUMP JUMPDEST PUSH0 PUSH2 0xB9A DUP3 DUP5 PUSH2 0xB5F JUMP JUMPDEST SWAP2 POP DUP2 SWAP1 POP SWAP3 SWAP2 POP POP JUMP INVALID LOG2 PUSH5 0x6970667358 0x22 SLT KECCAK256 MCOPY 0xD9 EXP CREATE2 PUSH13 0x8A4679AC36D5B1EFB11C3A4F94 DUP10 0x1F 0xD4 0xD2 CREATE PUSH20 0xAAE45F15204868B564736F6C6343000818003300 "
		},
		"gasEstimates": {
			"creation": {
				"codeDepositCost": "607000",
				"executionCost": "infinite",
				"totalCost": "infinite"
			},
			"external": {
				"addPerson(string,uint256)": "infinite",
				"myAddress()": "2531",
				"myBool()": "2510",
				"myBytes32()": "2425",
				"myInt()": "2470",
				"myString()": "infinite",
				"myUint()": "2425",
				"nameToFavoriteNumber(string)": "infinite",
				"people(uint256)": "infinite",
				"retrieve()": "2499",
				"store(uint256)": "22537"
			}
		},
		"methodIdentifiers": {
			"addPerson(string,uint256)": "6f760f41",
			"myAddress()": "26b85ee1",
			"myBool()": "6deecdbe",
			"myBytes32()": "4b3e7e0c",
			"myInt()": "2cb777a6",
			"myString()": "492bfa18",
			"myUint()": "06540f7e",
			"nameToFavoriteNumber(string)": "8bab8dd5",
			"people(uint256)": "9e7a13ad",
			"retrieve()": "2e64cec1",
			"store(uint256)": "6057361d"
		}
	},
	"abi": [
		{
			"inputs": [
				{
					"internalType": "string",
					"name": "_name",
					"type": "string"
				},
				{
					"internalType": "uint256",
					"name": "_favoriteNumber",
					"type": "uint256"
				}
			],
			"name": "addPerson",
			"outputs": [],
			"stateMutability": "nonpayable",
			"type": "function"
		},
		{
			"inputs": [],
			"name": "myAddress",
			"outputs": [
				{
					"internalType": "address",
					"name": "",
					"type": "address"
				}
			],
			"stateMutability": "view",
			"type": "function"
		},
		{
			"inputs": [],
			"name": "myBool",
			"outputs": [
				{
					"internalType": "bool",
					"name": "",
					"type": "bool"
				}
			],
			"stateMutability": "view",
			"type": "function"
		},
		{
			"inputs": [],
			"name": "myBytes32",
			"outputs": [
				{
					"internalType": "bytes32",
					"name": "",
					"type": "bytes32"
				}
			],
			"stateMutability": "view",
			"type": "function"
		},
		{
			"inputs": [],
			"name": "myInt",
			"outputs": [
				{
					"internalType": "int256",
					"name": "",
					"type": "int256"
				}
			],
			"stateMutability": "view",
			"type": "function"
		},
		{
			"inputs": [],
			"name": "myString",
			"outputs": [
				{
					"internalType": "string",
					"name": "",
					"type": "string"
				}
			],
			"stateMutability": "view",
			"type": "function"
		},
		{
			"inputs": [],
			"name": "myUint",
			"outputs": [
				{
					"internalType": "uint256",
					"name": "",
					"type": "uint256"
				}
			],
			"stateMutability": "view",
			"type": "function"
		},
		{
			"inputs": [
				{
					"internalType": "string",
					"name": "",
					"type": "string"
				}
			],
			"name": "nameToFavoriteNumber",
			"outputs": [
				{
					"internalType": "uint256",
					"name": "",
					"type": "uint256"
				}
			],
			"stateMutability": "view",
			"type": "function"
		},
		{
			"inputs": [
				{
					"internalType": "uint256",
					"name": "",
					"type": "uint256"
				}
			],
			"name": "people",
			"outputs": [
				{
					"internalType": "uint256",
					"name": "favoriteNumber",
					"type": "uint256"
				},
				{
					"internalType": "string",
					"name": "name",
					"type": "string"
				}
			],
			"stateMutability": "view",
			"type": "function"
		},
		{
			"inputs": [],
			"name": "retrieve",
			"outputs": [
				{
					"internalType": "uint256",
					"name": "",
					"type": "uint256"
				}
			],
			"stateMutability": "view",
			"type": "function"
		},
		{
			"inputs": [
				{
					"internalType": "uint256",
					"name": "_favoriteNumber",
					"type": "uint256"
				}
			],
			"name": "store",
			"outputs": [],
			"stateMutability": "nonpayable",
			"type": "function"
		}
	]
}